{
  "_format": "hh-sol-artifact-1",
  "contractName": "GameToken",
  "sourceName": "contracts/GameToken.sol",
  "abi": [
    {
      "inputs": [],
      "stateMutability": "nonpayable",
      "type": "constructor"
    },
    {
      "anonymous": false,
      "inputs": [
        {
          "indexed": true,
          "internalType": "address",
          "name": "owner",
          "type": "address"
        },
        {
          "indexed": true,
          "internalType": "address",
          "name": "spender",
          "type": "address"
        },
        {
          "indexed": false,
          "internalType": "uint256",
          "name": "value",
          "type": "uint256"
        }
      ],
      "name": "Approval",
      "type": "event"
    },
    {
      "anonymous": false,
      "inputs": [
        {
          "indexed": true,
          "internalType": "address",
          "name": "player",
          "type": "address"
        },
        {
          "indexed": false,
          "internalType": "bool",
          "name": "won",
          "type": "bool"
        },
        {
          "indexed": false,
          "internalType": "uint256",
          "name": "betAmount",
          "type": "uint256"
        },
        {
          "indexed": false,
          "internalType": "uint256",
          "name": "winAmount",
          "type": "uint256"
        }
      ],
      "name": "GamePlayed",
      "type": "event"
    },
    {
      "anonymous": false,
      "inputs": [
        {
          "indexed": true,
          "internalType": "address",
          "name": "previousOwner",
          "type": "address"
        },
        {
          "indexed": true,
          "internalType": "address",
          "name": "newOwner",
          "type": "address"
        }
      ],
      "name": "OwnershipTransferred",
      "type": "event"
    },
    {
      "anonymous": false,
      "inputs": [
        {
          "indexed": true,
          "internalType": "address",
          "name": "buyer",
          "type": "address"
        },
        {
          "indexed": false,
          "internalType": "uint256",
          "name": "amount",
          "type": "uint256"
        },
        {
          "indexed": false,
          "internalType": "uint256",
          "name": "cost",
          "type": "uint256"
        }
      ],
      "name": "TokensPurchased",
      "type": "event"
    },
    {
      "anonymous": false,
      "inputs": [
        {
          "indexed": true,
          "internalType": "address",
          "name": "from",
          "type": "address"
        },
        {
          "indexed": true,
          "internalType": "address",
          "name": "to",
          "type": "address"
        },
        {
          "indexed": false,
          "internalType": "uint256",
          "name": "value",
          "type": "uint256"
        }
      ],
      "name": "Transfer",
      "type": "event"
    },
    {
      "inputs": [
        {
          "internalType": "address",
          "name": "owner",
          "type": "address"
        },
        {
          "internalType": "address",
          "name": "spender",
          "type": "address"
        }
      ],
      "name": "allowance",
      "outputs": [
        {
          "internalType": "uint256",
          "name": "",
          "type": "uint256"
        }
      ],
      "stateMutability": "view",
      "type": "function"
    },
    {
      "inputs": [
        {
          "internalType": "address",
          "name": "spender",
          "type": "address"
        },
        {
          "internalType": "uint256",
          "name": "amount",
          "type": "uint256"
        }
      ],
      "name": "approve",
      "outputs": [
        {
          "internalType": "bool",
          "name": "",
          "type": "bool"
        }
      ],
      "stateMutability": "nonpayable",
      "type": "function"
    },
    {
      "inputs": [
        {
          "internalType": "address",
          "name": "account",
          "type": "address"
        }
      ],
      "name": "balanceOf",
      "outputs": [
        {
          "internalType": "uint256",
          "name": "",
          "type": "uint256"
        }
      ],
      "stateMutability": "view",
      "type": "function"
    },
    {
      "inputs": [],
      "name": "decimals",
      "outputs": [
        {
          "internalType": "uint8",
          "name": "",
          "type": "uint8"
        }
      ],
      "stateMutability": "view",
      "type": "function"
    },
    {
      "inputs": [
        {
          "internalType": "address",
          "name": "spender",
          "type": "address"
        },
        {
          "internalType": "uint256",
          "name": "subtractedValue",
          "type": "uint256"
        }
      ],
      "name": "decreaseAllowance",
      "outputs": [
        {
          "internalType": "bool",
          "name": "",
          "type": "bool"
        }
      ],
      "stateMutability": "nonpayable",
      "type": "function"
    },
    {
      "inputs": [
        {
          "internalType": "address",
          "name": "user",
          "type": "address"
        }
      ],
      "name": "getUserStats",
      "outputs": [
        {
          "internalType": "uint256",
          "name": "balance",
          "type": "uint256"
        },
        {
          "internalType": "uint256",
          "name": "wins",
          "type": "uint256"
        },
        {
          "internalType": "uint256",
          "name": "games",
          "type": "uint256"
        },
        {
          "internalType": "uint256",
          "name": "winRate",
          "type": "uint256"
        }
      ],
      "stateMutability": "view",
      "type": "function"
    },
    {
      "inputs": [
        {
          "internalType": "address",
          "name": "spender",
          "type": "address"
        },
        {
          "internalType": "uint256",
          "name": "addedValue",
          "type": "uint256"
        }
      ],
      "name": "increaseAllowance",
      "outputs": [
        {
          "internalType": "bool",
          "name": "",
          "type": "bool"
        }
      ],
      "stateMutability": "nonpayable",
      "type": "function"
    },
    {
      "inputs": [],
      "name": "maxSupply",
      "outputs": [
        {
          "internalType": "uint256",
          "name": "",
          "type": "uint256"
        }
      ],
      "stateMutability": "view",
      "type": "function"
    },
    {
      "inputs": [],
      "name": "name",
      "outputs": [
        {
          "internalType": "string",
          "name": "",
          "type": "string"
        }
      ],
      "stateMutability": "view",
      "type": "function"
    },
    {
      "inputs": [],
      "name": "owner",
      "outputs": [
        {
          "internalType": "address",
          "name": "",
          "type": "address"
        }
      ],
      "stateMutability": "view",
      "type": "function"
    },
    {
      "inputs": [
        {
          "internalType": "uint256",
          "name": "betAmount",
          "type": "uint256"
        },
        {
          "internalType": "bool",
          "name": "playerChoice",
          "type": "bool"
        }
      ],
      "name": "playGame",
      "outputs": [],
      "stateMutability": "nonpayable",
      "type": "function"
    },
    {
      "inputs": [],
      "name": "purchaseTokens",
      "outputs": [],
      "stateMutability": "payable",
      "type": "function"
    },
    {
      "inputs": [],
      "name": "renounceOwnership",
      "outputs": [],
      "stateMutability": "nonpayable",
      "type": "function"
    },
    {
      "inputs": [
        {
          "internalType": "uint256",
          "name": "newPrice",
          "type": "uint256"
        }
      ],
      "name": "setTokenPrice",
      "outputs": [],
      "stateMutability": "nonpayable",
      "type": "function"
    },
    {
      "inputs": [],
      "name": "symbol",
      "outputs": [
        {
          "internalType": "string",
          "name": "",
          "type": "string"
        }
      ],
      "stateMutability": "view",
      "type": "function"
    },
    {
      "inputs": [],
      "name": "tokenPrice",
      "outputs": [
        {
          "internalType": "uint256",
          "name": "",
          "type": "uint256"
        }
      ],
      "stateMutability": "view",
      "type": "function"
    },
    {
      "inputs": [
        {
          "internalType": "address",
          "name": "",
          "type": "address"
        }
      ],
      "name": "totalGames",
      "outputs": [
        {
          "internalType": "uint256",
          "name": "",
          "type": "uint256"
        }
      ],
      "stateMutability": "view",
      "type": "function"
    },
    {
      "inputs": [],
      "name": "totalSupply",
      "outputs": [
        {
          "internalType": "uint256",
          "name": "",
          "type": "uint256"
        }
      ],
      "stateMutability": "view",
      "type": "function"
    },
    {
      "inputs": [
        {
          "internalType": "address",
          "name": "",
          "type": "address"
        }
      ],
      "name": "totalWins",
      "outputs": [
        {
          "internalType": "uint256",
          "name": "",
          "type": "uint256"
        }
      ],
      "stateMutability": "view",
      "type": "function"
    },
    {
      "inputs": [
        {
          "internalType": "address",
          "name": "to",
          "type": "address"
        },
        {
          "internalType": "uint256",
          "name": "amount",
          "type": "uint256"
        }
      ],
      "name": "transfer",
      "outputs": [
        {
          "internalType": "bool",
          "name": "",
          "type": "bool"
        }
      ],
      "stateMutability": "nonpayable",
      "type": "function"
    },
    {
      "inputs": [
        {
          "internalType": "address",
          "name": "from",
          "type": "address"
        },
        {
          "internalType": "address",
          "name": "to",
          "type": "address"
        },
        {
          "internalType": "uint256",
          "name": "amount",
          "type": "uint256"
        }
      ],
      "name": "transferFrom",
      "outputs": [
        {
          "internalType": "bool",
          "name": "",
          "type": "bool"
        }
      ],
      "stateMutability": "nonpayable",
      "type": "function"
    },
    {
      "inputs": [
        {
          "internalType": "address",
          "name": "newOwner",
          "type": "address"
        }
      ],
      "name": "transferOwnership",
      "outputs": [],
      "stateMutability": "nonpayable",
      "type": "function"
    },
    {
      "inputs": [
        {
          "internalType": "address",
          "name": "",
          "type": "address"
        }
      ],
      "name": "userBalance",
      "outputs": [
        {
          "internalType": "uint256",
          "name": "",
          "type": "uint256"
        }
      ],
      "stateMutability": "view",
      "type": "function"
    },
    {
      "inputs": [],
      "name": "withdrawETH",
      "outputs": [],
      "stateMutability": "nonpayable",
      "type": "function"
    }
  ],
  "bytecode": "0x608060405266038d7ea4c6800060075569d3c21bcecceda10000006008553480156200002a57600080fd5b506040518060400160405280601181526020017023bcb733b2b91023b0b6b2902a37b5b2b760791b8152506040518060400160405280600681526020016523aca723a2a960d11b815250816003908162000085919062000297565b50600462000094828262000297565b505050620000b1620000ab620000d260201b60201c565b620000d6565b6001600655620000cc3369152d02c7e14af680000062000128565b6200038b565b3390565b600580546001600160a01b038381166001600160a01b0319831681179093556040519116919082907f8be0079c531659141344cd1fd0a4f28419497f9722a3daafe3b4186f6b6457e090600090a35050565b6001600160a01b038216620001835760405162461bcd60e51b815260206004820152601f60248201527f45524332303a206d696e7420746f20746865207a65726f206164647265737300604482015260640160405180910390fd5b806002600082825462000197919062000363565b90915550506001600160a01b038216600081815260208181526040808320805486019055518481527fddf252ad1be2c89b69c2b068fc378daa952ba7f163c4a11628f55a4df523b3ef910160405180910390a35050565b505050565b634e487b7160e01b600052604160045260246000fd5b600181811c908216806200021e57607f821691505b6020821081036200023f57634e487b7160e01b600052602260045260246000fd5b50919050565b601f821115620001ee57600081815260208120601f850160051c810160208610156200026e5750805b601f850160051c820191505b818110156200028f578281556001016200027a565b505050505050565b81516001600160401b03811115620002b357620002b3620001f3565b620002cb81620002c4845462000209565b8462000245565b602080601f831160018114620003035760008415620002ea5750858301515b600019600386901b1c1916600185901b1785556200028f565b600085815260208120601f198616915b82811015620003345788860151825594840194600190910190840162000313565b5085821015620003535787850151600019600388901b60f8161c191681555b5050505050600190811b01905550565b808201808211156200038557634e487b7160e01b600052601160045260246000fd5b92915050565b611423806200039b6000396000f3fe60806040526004361061014b5760003560e01c80637ff9b596116100b6578063a9059cbb1161006f578063a9059cbb146103d5578063aa5002b6146103f5578063d5abeb0114610415578063dd62ed3e1461042b578063e086e5ec1461044b578063f2fde38b1461046057600080fd5b80637ff9b596146103085780638da5cb5b1461031e57806395d89b41146103465780639663ccf11461035b57806396e9b0e214610388578063a457c2d7146103b557600080fd5b80633290ce29116101085780633290ce2914610233578063395093511461023d5780634e43603a1461025d5780636a61e5fc1461029d57806370a08231146102bd578063715018a6146102f357600080fd5b80630103c92b1461015057806306fdde0314610190578063095ea7b3146101b257806318160ddd146101e257806323b872dd146101f7578063313ce56714610217575b600080fd5b34801561015c57600080fd5b5061017d61016b3660046111cb565b60096020526000908152604090205481565b6040519081526020015b60405180910390f35b34801561019c57600080fd5b506101a5610480565b60405161018791906111ed565b3480156101be57600080fd5b506101d26101cd36600461123b565b610512565b6040519015158152602001610187565b3480156101ee57600080fd5b5060025461017d565b34801561020357600080fd5b506101d2610212366004611265565b61052c565b34801561022357600080fd5b5060405160128152602001610187565b61023b610550565b005b34801561024957600080fd5b506101d261025836600461123b565b610700565b34801561026957600080fd5b5061027d6102783660046111cb565b610722565b604080519485526020850193909352918301526060820152608001610187565b3480156102a957600080fd5b5061023b6102b83660046112a1565b61077c565b3480156102c957600080fd5b5061017d6102d83660046111cb565b6001600160a01b031660009081526020819052604090205490565b3480156102ff57600080fd5b5061023b610789565b34801561031457600080fd5b5061017d60075481565b34801561032a57600080fd5b506005546040516001600160a01b039091168152602001610187565b34801561035257600080fd5b506101a561079b565b34801561036757600080fd5b5061017d6103763660046111cb565b600b6020526000908152604090205481565b34801561039457600080fd5b5061017d6103a33660046111cb565b600a6020526000908152604090205481565b3480156103c157600080fd5b506101d26103d036600461123b565b6107aa565b3480156103e157600080fd5b506101d26103f036600461123b565b610825565b34801561040157600080fd5b5061023b6104103660046112ba565b610833565b34801561042157600080fd5b5061017d60085481565b34801561043757600080fd5b5061017d6104463660046112ef565b610a99565b34801561045757600080fd5b5061023b610ac4565b34801561046c57600080fd5b5061023b61047b3660046111cb565b610b08565b60606003805461048f90611322565b80601f01602080910402602001604051908101604052809291908181526020018280546104bb90611322565b80156105085780601f106104dd57610100808354040283529160200191610508565b820191906000526020600020905b8154815290600101906020018083116104eb57829003601f168201915b5050505050905090565b600033610520818585610b7e565b60019150505b92915050565b60003361053a858285610ca3565b610545858585610d1d565b506001949350505050565b610558610ec1565b600034116105ad5760405162461bcd60e51b815260206004820181905260248201527f4d7573742073656e642045544820746f20707572636861736520746f6b656e7360448201526064015b60405180910390fd5b60075434101561060d5760405162461bcd60e51b815260206004820152602560248201527f496e73756666696369656e742045544820666f72206d696e696d756d20707572604482015264636861736560d81b60648201526084016105a4565b60075460009061062534670de0b6b3a7640000611372565b61062f919061139f565b90506008548161063e60025490565b61064891906113b3565b111561068b5760405162461bcd60e51b815260206004820152601260248201527145786365656473206d617820737570706c7960701b60448201526064016105a4565b6106953382610f1a565b33600090815260096020526040812080548392906106b49084906113b3565b90915550506040805182815234602082015233917f8fafebcaf9d154343dad25669bfa277f4fbacd7ac6b0c4fed522580e040a0f33910160405180910390a2506106fe6001600655565b565b6000336105208185856107138383610a99565b61071d91906113b3565b610b7e565b6001600160a01b038116600090815260096020908152604080832054600a835281842054600b9093529083205490928161075d576000610773565b81610769846064611372565b610773919061139f565b90509193509193565b610784610fd9565b600755565b610791610fd9565b6106fe6000611033565b60606004805461048f90611322565b600033816107b88286610a99565b9050838110156108185760405162461bcd60e51b815260206004820152602560248201527f45524332303a2064656372656173656420616c6c6f77616e63652062656c6f77604482015264207a65726f60d81b60648201526084016105a4565b6105458286868403610b7e565b600033610520818585610d1d565b61083b610ec1565b600082116108955760405162461bcd60e51b815260206004820152602160248201527f42657420616d6f756e74206d7573742062652067726561746572207468616e206044820152600360fc1b60648201526084016105a4565b336000908152602081905260409020548211156108ea5760405162461bcd60e51b8152602060048201526013602482015272496e73756666696369656e7420746f6b656e7360681b60448201526064016105a4565b6000600242443360405160200161092693929190928352602083019190915260601b6bffffffffffffffffffffffff1916604082015260540190565b6040516020818303038152906040528051906020012060001c61094991906113c6565b9050600181148215158114801561099e576000610967866002611372565b90506109733382610f1a565b33600090815260096020526040812080548392906109929084906113b3565b909155506109cd915050565b6109a83386611085565b33600090815260096020526040812080548792906109c79084906113da565b90915550505b806109d95760006109dc565b60015b336000908152600a60205260408120805460ff9390931692909190610a029084906113b3565b9091555050336000908152600b60205260408120805460019290610a279084906113b3565b909155503390507ffac418a137ccfeafca1ba53aff87f015fce1453ebde4865119e9007d7eeb3e9e828781610a5d576000610a68565b610a68896002611372565b60408051931515845260208401929092529082015260600160405180910390a2505050610a956001600655565b5050565b6001600160a01b03918216600090815260016020908152604080832093909416825291909152205490565b610acc610fd9565b6005546040516001600160a01b03909116904780156108fc02916000818181858888f19350505050158015610b05573d6000803e3d6000fd5b50565b610b10610fd9565b6001600160a01b038116610b755760405162461bcd60e51b815260206004820152602660248201527f4f776e61626c653a206e6577206f776e657220697320746865207a65726f206160448201526564647265737360d01b60648201526084016105a4565b610b0581611033565b6001600160a01b038316610be05760405162461bcd60e51b8152602060048201526024808201527f45524332303a20617070726f76652066726f6d20746865207a65726f206164646044820152637265737360e01b60648201526084016105a4565b6001600160a01b038216610c415760405162461bcd60e51b815260206004820152602260248201527f45524332303a20617070726f766520746f20746865207a65726f206164647265604482015261737360f01b60648201526084016105a4565b6001600160a01b0383811660008181526001602090815260408083209487168084529482529182902085905590518481527f8c5be1e5ebec7d5bd14f71427d1e84f3dd0314c0f7b2291e5b200ac8c7c3b92591015b60405180910390a3505050565b6000610caf8484610a99565b90506000198114610d175781811015610d0a5760405162461bcd60e51b815260206004820152601d60248201527f45524332303a20696e73756666696369656e7420616c6c6f77616e636500000060448201526064016105a4565b610d178484848403610b7e565b50505050565b6001600160a01b038316610d815760405162461bcd60e51b815260206004820152602560248201527f45524332303a207472616e736665722066726f6d20746865207a65726f206164604482015264647265737360d81b60648201526084016105a4565b6001600160a01b038216610de35760405162461bcd60e51b815260206004820152602360248201527f45524332303a207472616e7366657220746f20746865207a65726f206164647260448201526265737360e81b60648201526084016105a4565b6001600160a01b03831660009081526020819052604090205481811015610e5b5760405162461bcd60e51b815260206004820152602660248201527f45524332303a207472616e7366657220616d6f756e7420657863656564732062604482015265616c616e636560d01b60648201526084016105a4565b6001600160a01b03848116600081815260208181526040808320878703905593871680835291849020805487019055925185815290927fddf252ad1be2c89b69c2b068fc378daa952ba7f163c4a11628f55a4df523b3ef910160405180910390a3610d17565b600260065403610f135760405162461bcd60e51b815260206004820152601f60248201527f5265656e7472616e637947756172643a207265656e7472616e742063616c6c0060448201526064016105a4565b6002600655565b6001600160a01b038216610f705760405162461bcd60e51b815260206004820152601f60248201527f45524332303a206d696e7420746f20746865207a65726f20616464726573730060448201526064016105a4565b8060026000828254610f8291906113b3565b90915550506001600160a01b038216600081815260208181526040808320805486019055518481527fddf252ad1be2c89b69c2b068fc378daa952ba7f163c4a11628f55a4df523b3ef910160405180910390a35050565b6005546001600160a01b031633146106fe5760405162461bcd60e51b815260206004820181905260248201527f4f776e61626c653a2063616c6c6572206973206e6f7420746865206f776e657260448201526064016105a4565b600580546001600160a01b038381166001600160a01b0319831681179093556040519116919082907f8be0079c531659141344cd1fd0a4f28419497f9722a3daafe3b4186f6b6457e090600090a35050565b6001600160a01b0382166110e55760405162461bcd60e51b815260206004820152602160248201527f45524332303a206275726e2066726f6d20746865207a65726f206164647265736044820152607360f81b60648201526084016105a4565b6001600160a01b038216600090815260208190526040902054818110156111595760405162461bcd60e51b815260206004820152602260248201527f45524332303a206275726e20616d6f756e7420657863656564732062616c616e604482015261636560f01b60648201526084016105a4565b6001600160a01b0383166000818152602081815260408083208686039055600280548790039055518581529192917fddf252ad1be2c89b69c2b068fc378daa952ba7f163c4a11628f55a4df523b3ef9101610c96565b80356001600160a01b03811681146111c657600080fd5b919050565b6000602082840312156111dd57600080fd5b6111e6826111af565b9392505050565b600060208083528351808285015260005b8181101561121a578581018301518582016040015282016111fe565b506000604082860101526040601f19601f8301168501019250505092915050565b6000806040838503121561124e57600080fd5b611257836111af565b946020939093013593505050565b60008060006060848603121561127a57600080fd5b611283846111af565b9250611291602085016111af565b9150604084013590509250925092565b6000602082840312156112b357600080fd5b5035919050565b600080604083850312156112cd57600080fd5b82359150602083013580151581146112e457600080fd5b809150509250929050565b6000806040838503121561130257600080fd5b61130b836111af565b9150611319602084016111af565b90509250929050565b600181811c9082168061133657607f821691505b60208210810361135657634e487b7160e01b600052602260045260246000fd5b50919050565b634e487b7160e01b600052601160045260246000fd5b80820281158282048414176105265761052661135c565b634e487b7160e01b600052601260045260246000fd5b6000826113ae576113ae611389565b500490565b808201808211156105265761052661135c565b6000826113d5576113d5611389565b500690565b818103818111156105265761052661135c56fea26469706673582212205d45941b1b20bfea5aeb5a68007a0dd137ce9f3c6657add1a259697267d0497064736f6c63430008130033",
  "linkReferences": {},
  "deployedLinkReferences": {}
}